{
  "contractName": "BlockchainContract",
  "abi": [
    {
      "inputs": [],
      "stateMutability": "nonpayable",
      "type": "constructor"
    },
    {
      "anonymous": false,
      "inputs": [
        {
          "indexed": false,
          "internalType": "uint256",
          "name": "inst",
          "type": "uint256"
        }
      ],
      "name": "LoopSeat",
      "type": "event"
    },
    {
      "inputs": [
        {
          "internalType": "uint256",
          "name": "",
          "type": "uint256"
        }
      ],
      "name": "items",
      "outputs": [
        {
          "internalType": "string",
          "name": "id",
          "type": "string"
        },
        {
          "internalType": "string",
          "name": "model",
          "type": "string"
        },
        {
          "internalType": "string",
          "name": "brand",
          "type": "string"
        },
        {
          "internalType": "string",
          "name": "category",
          "type": "string"
        },
        {
          "internalType": "string",
          "name": "price",
          "type": "string"
        }
      ],
      "stateMutability": "view",
      "type": "function",
      "constant": true
    },
    {
      "inputs": [
        {
          "internalType": "uint256",
          "name": "",
          "type": "uint256"
        }
      ],
      "name": "tickets",
      "outputs": [
        {
          "internalType": "string",
          "name": "id",
          "type": "string"
        },
        {
          "internalType": "string",
          "name": "idUser",
          "type": "string"
        },
        {
          "internalType": "string",
          "name": "amount",
          "type": "string"
        },
        {
          "internalType": "string",
          "name": "idItem",
          "type": "string"
        },
        {
          "internalType": "string",
          "name": "model",
          "type": "string"
        },
        {
          "internalType": "string",
          "name": "brand",
          "type": "string"
        },
        {
          "internalType": "string",
          "name": "category",
          "type": "string"
        },
        {
          "internalType": "string",
          "name": "price",
          "type": "string"
        }
      ],
      "stateMutability": "view",
      "type": "function",
      "constant": true
    },
    {
      "inputs": [
        {
          "internalType": "uint256",
          "name": "",
          "type": "uint256"
        }
      ],
      "name": "users",
      "outputs": [
        {
          "internalType": "string",
          "name": "id",
          "type": "string"
        },
        {
          "internalType": "string",
          "name": "name",
          "type": "string"
        },
        {
          "internalType": "string",
          "name": "username",
          "type": "string"
        },
        {
          "internalType": "string",
          "name": "password",
          "type": "string"
        }
      ],
      "stateMutability": "view",
      "type": "function",
      "constant": true
    },
    {
      "inputs": [
        {
          "internalType": "string",
          "name": "_id",
          "type": "string"
        },
        {
          "internalType": "string",
          "name": "_name",
          "type": "string"
        },
        {
          "internalType": "string",
          "name": "_email",
          "type": "string"
        },
        {
          "internalType": "string",
          "name": "_password",
          "type": "string"
        }
      ],
      "name": "createUser",
      "outputs": [],
      "stateMutability": "nonpayable",
      "type": "function"
    },
    {
      "inputs": [
        {
          "internalType": "string",
          "name": "_id",
          "type": "string"
        },
        {
          "internalType": "string",
          "name": "_model",
          "type": "string"
        },
        {
          "internalType": "string",
          "name": "_brand",
          "type": "string"
        },
        {
          "internalType": "string",
          "name": "_category",
          "type": "string"
        },
        {
          "internalType": "string",
          "name": "_priceInPesos",
          "type": "string"
        }
      ],
      "name": "createItem",
      "outputs": [],
      "stateMutability": "nonpayable",
      "type": "function"
    },
    {
      "inputs": [
        {
          "internalType": "string",
          "name": "_id",
          "type": "string"
        },
        {
          "internalType": "string",
          "name": "_idUser",
          "type": "string"
        },
        {
          "internalType": "string",
          "name": "_amount",
          "type": "string"
        },
        {
          "internalType": "string",
          "name": "_idItem",
          "type": "string"
        },
        {
          "internalType": "string",
          "name": "_model",
          "type": "string"
        },
        {
          "internalType": "string",
          "name": "_brand",
          "type": "string"
        },
        {
          "internalType": "string",
          "name": "_category",
          "type": "string"
        },
        {
          "internalType": "string",
          "name": "_price",
          "type": "string"
        }
      ],
      "name": "createTicket",
      "outputs": [],
      "stateMutability": "nonpayable",
      "type": "function"
    },
    {
      "inputs": [
        {
          "internalType": "string",
          "name": "_idItem",
          "type": "string"
        }
      ],
      "name": "getItemById",
      "outputs": [
        {
          "components": [
            {
              "internalType": "string",
              "name": "id",
              "type": "string"
            },
            {
              "internalType": "string",
              "name": "model",
              "type": "string"
            },
            {
              "internalType": "string",
              "name": "brand",
              "type": "string"
            },
            {
              "internalType": "string",
              "name": "category",
              "type": "string"
            },
            {
              "internalType": "string",
              "name": "price",
              "type": "string"
            }
          ],
          "internalType": "struct BlockchainContract.Item",
          "name": "",
          "type": "tuple"
        }
      ],
      "stateMutability": "view",
      "type": "function",
      "constant": true
    },
    {
      "inputs": [
        {
          "internalType": "string",
          "name": "_idTicket",
          "type": "string"
        }
      ],
      "name": "getTicketById",
      "outputs": [
        {
          "components": [
            {
              "internalType": "string",
              "name": "id",
              "type": "string"
            },
            {
              "internalType": "string",
              "name": "idUser",
              "type": "string"
            },
            {
              "internalType": "string",
              "name": "amount",
              "type": "string"
            },
            {
              "internalType": "string",
              "name": "idItem",
              "type": "string"
            },
            {
              "internalType": "string",
              "name": "model",
              "type": "string"
            },
            {
              "internalType": "string",
              "name": "brand",
              "type": "string"
            },
            {
              "internalType": "string",
              "name": "category",
              "type": "string"
            },
            {
              "internalType": "string",
              "name": "price",
              "type": "string"
            }
          ],
          "internalType": "struct BlockchainContract.Ticket",
          "name": "",
          "type": "tuple"
        }
      ],
      "stateMutability": "view",
      "type": "function",
      "constant": true
    },
    {
      "inputs": [
        {
          "internalType": "string",
          "name": "_idUser",
          "type": "string"
        }
      ],
      "name": "getUserShoppings",
      "outputs": [
        {
          "internalType": "string",
          "name": "",
          "type": "string"
        }
      ],
      "stateMutability": "view",
      "type": "function",
      "constant": true
    },
    {
      "inputs": [
        {
          "internalType": "uint256",
          "name": "_position",
          "type": "uint256"
        }
      ],
      "name": "getItem",
      "outputs": [
        {
          "components": [
            {
              "internalType": "string",
              "name": "id",
              "type": "string"
            },
            {
              "internalType": "string",
              "name": "model",
              "type": "string"
            },
            {
              "internalType": "string",
              "name": "brand",
              "type": "string"
            },
            {
              "internalType": "string",
              "name": "category",
              "type": "string"
            },
            {
              "internalType": "string",
              "name": "price",
              "type": "string"
            }
          ],
          "internalType": "struct BlockchainContract.Item",
          "name": "",
          "type": "tuple"
        }
      ],
      "stateMutability": "view",
      "type": "function",
      "constant": true
    }
  ],
  "bytecode": "0x608060405260008055600060015560006002553480156200001f57600080fd5b50620000306200004660201b60201c565b620000406200021860201b60201c565b620019a0565b6200012e6040518060400160405280600881526020017f30316135633765320000000000000000000000000000000000000000000000008152506040518060400160405280600781526020017f59656c69747a61000000000000000000000000000000000000000000000000008152506040518060400160405280600b81526020017f79656c69747a61323032330000000000000000000000000000000000000000008152506040518060400160405280600e81526020017f48656c6c6f576f726c64323032330000000000000000000000000000000000008152506200163660201b60201c565b620002166040518060400160405280600881526020017f65633037336630310000000000000000000000000000000000000000000000008152506040518060400160405280600781526020017f566963656e7465000000000000000000000000000000000000000000000000008152506040518060400160405280600b81526020017f766963656e7465323032330000000000000000000000000000000000000000008152506040518060400160405280600e81526020017f48656c6c6f576f726c64323032330000000000000000000000000000000000008152506200163660201b60201c565b565b620003366040518060400160405280600881526020017f30454530464633360000000000000000000000000000000000000000000000008152506040518060400160405280600681526020017f4c433234463300000000000000000000000000000000000000000000000000008152506040518060400160405280600781526020017f53414d53554e47000000000000000000000000000000000000000000000000008152506040518060400160405280600781526020017f4d4f4e49544f52000000000000000000000000000000000000000000000000008152506040518060400160405280600481526020017f34303132000000000000000000000000000000000000000000000000000000008152506200170b60201b60201c565b620004546040518060400160405280600881526020017f33413033463937460000000000000000000000000000000000000000000000008152506040518060400160405280600581526020017f52323432590000000000000000000000000000000000000000000000000000008152506040518060400160405280600481526020017f41434552000000000000000000000000000000000000000000000000000000008152506040518060400160405280600781526020017f4d4f4e49544f52000000000000000000000000000000000000000000000000008152506040518060400160405280600481526020017f32333230000000000000000000000000000000000000000000000000000000008152506200170b60201b60201c565b620005726040518060400160405280600881526020017f33373635343437410000000000000000000000000000000000000000000000008152506040518060400160405280600581526020017f4c323447510000000000000000000000000000000000000000000000000000008152506040518060400160405280600281526020017f4c470000000000000000000000000000000000000000000000000000000000008152506040518060400160405280600781526020017f4d4f4e49544f52000000000000000000000000000000000000000000000000008152506040518060400160405280600481526020017f34353230000000000000000000000000000000000000000000000000000000008152506200170b60201b60201c565b620006906040518060400160405280600881526020017f44323435364546370000000000000000000000000000000000000000000000008152506040518060400160405280600581526020017f47573232510000000000000000000000000000000000000000000000000000008152506040518060400160405280600481526020017f42454e51000000000000000000000000000000000000000000000000000000008152506040518060400160405280600781526020017f4d4f4e49544f52000000000000000000000000000000000000000000000000008152506040518060400160405280600481526020017f32343030000000000000000000000000000000000000000000000000000000008152506200170b60201b60201c565b620007ae6040518060400160405280600881526020017f36443136323832450000000000000000000000000000000000000000000000008152506040518060400160405280600581526020017f32324d4b340000000000000000000000000000000000000000000000000000008152506040518060400160405280600281526020017f4c470000000000000000000000000000000000000000000000000000000000008152506040518060400160405280600781526020017f4d4f4e49544f52000000000000000000000000000000000000000000000000008152506040518060400160405280600481526020017f33323030000000000000000000000000000000000000000000000000000000008152506200170b60201b60201c565b620008cc6040518060400160405280600881526020017f32353232333433330000000000000000000000000000000000000000000000008152506040518060400160405280600581526020017f35363030470000000000000000000000000000000000000000000000000000008152506040518060400160405280600581526020017f52595a454e0000000000000000000000000000000000000000000000000000008152506040518060400160405280600a81526020017f50524f43455341444f52000000000000000000000000000000000000000000008152506040518060400160405280600481526020017f32303935000000000000000000000000000000000000000000000000000000008152506200170b60201b60201c565b620009ea6040518060400160405280600881526020017f35413633314541390000000000000000000000000000000000000000000000008152506040518060400160405280600581526020017f35373030470000000000000000000000000000000000000000000000000000008152506040518060400160405280600581526020017f52595a454e0000000000000000000000000000000000000000000000000000008152506040518060400160405280600a81526020017f50524f43455341444f52000000000000000000000000000000000000000000008152506040518060400160405280600481526020017f33303835000000000000000000000000000000000000000000000000000000008152506200170b60201b60201c565b62000b086040518060400160405280600881526020017f32353634423542430000000000000000000000000000000000000000000000008152506040518060400160405280600581526020017f35363030580000000000000000000000000000000000000000000000000000008152506040518060400160405280600581526020017f52595a454e0000000000000000000000000000000000000000000000000000008152506040518060400160405280600a81526020017f50524f43455341444f52000000000000000000000000000000000000000000008152506040518060400160405280600481526020017f32383235000000000000000000000000000000000000000000000000000000008152506200170b60201b60201c565b62000c266040518060400160405280600881526020017f36453542333834440000000000000000000000000000000000000000000000008152506040518060400160405280600581526020017f35383030580000000000000000000000000000000000000000000000000000008152506040518060400160405280600581526020017f52595a454e0000000000000000000000000000000000000000000000000000008152506040518060400160405280600a81526020017f50524f43455341444f52000000000000000000000000000000000000000000008152506040518060400160405280600481526020017f34303235000000000000000000000000000000000000000000000000000000008152506200170b60201b60201c565b62000d446040518060400160405280600881526020017f37413438303937340000000000000000000000000000000000000000000000008152506040518060400160405280600581526020017f31313430300000000000000000000000000000000000000000000000000000008152506040518060400160405280600581526020017f494e54454c0000000000000000000000000000000000000000000000000000008152506040518060400160405280600a81526020017f50524f43455341444f52000000000000000000000000000000000000000000008152506040518060400160405280600481526020017f33313739000000000000000000000000000000000000000000000000000000008152506200170b60201b60201c565b62000e626040518060400160405280600881526020017f39393439444132460000000000000000000000000000000000000000000000008152506040518060400160405280600581526020017f4b463432360000000000000000000000000000000000000000000000000000008152506040518060400160405280600881526020017f4b494e4753544f4e0000000000000000000000000000000000000000000000008152506040518060400160405280600381526020017f52414d00000000000000000000000000000000000000000000000000000000008152506040518060400160405280600381526020017f37303900000000000000000000000000000000000000000000000000000000008152506200170b60201b60201c565b62000f806040518060400160405280600881526020017f35373441463337430000000000000000000000000000000000000000000000008152506040518060400160405280600581526020017f434d5731360000000000000000000000000000000000000000000000000000008152506040518060400160405280600781526020017f434f5253414952000000000000000000000000000000000000000000000000008152506040518060400160405280600381526020017f52414d00000000000000000000000000000000000000000000000000000000008152506040518060400160405280600481526020017f31323739000000000000000000000000000000000000000000000000000000008152506200170b60201b60201c565b6200109e6040518060400160405280600881526020017f44453933444544330000000000000000000000000000000000000000000000008152506040518060400160405280600581526020017f41583455330000000000000000000000000000000000000000000000000000008152506040518060400160405280600381526020017f58504700000000000000000000000000000000000000000000000000000000008152506040518060400160405280600381526020017f52414d00000000000000000000000000000000000000000000000000000000008152506040518060400160405280600481526020017f31333430000000000000000000000000000000000000000000000000000000008152506200170b60201b60201c565b620011bc6040518060400160405280600881526020017f35384542393543390000000000000000000000000000000000000000000000008152506040518060400160405280600581526020017f53413430300000000000000000000000000000000000000000000000000000008152506040518060400160405280600881526020017f4b494e4753544f4e0000000000000000000000000000000000000000000000008152506040518060400160405280600581526020017f444953434f0000000000000000000000000000000000000000000000000000008152506040518060400160405280600381526020017f34383500000000000000000000000000000000000000000000000000000000008152506200170b60201b60201c565b620012da6040518060400160405280600881526020017f30343831434342340000000000000000000000000000000000000000000000008152506040518060400160405280600581526020017f53553633300000000000000000000000000000000000000000000000000000008152506040518060400160405280600581526020017f41444154410000000000000000000000000000000000000000000000000000008152506040518060400160405280600581526020017f444953434f0000000000000000000000000000000000000000000000000000008152506040518060400160405280600381526020017f38323900000000000000000000000000000000000000000000000000000000008152506200170b60201b60201c565b620013f86040518060400160405280600881526020017f45303144434632440000000000000000000000000000000000000000000000008152506040518060400160405280600581526020017f57445334380000000000000000000000000000000000000000000000000000008152506040518060400160405280600f81526020017f5745535445524e204449474954414c00000000000000000000000000000000008152506040518060400160405280600581526020017f444953434f0000000000000000000000000000000000000000000000000000008152506040518060400160405280600381526020017f34393900000000000000000000000000000000000000000000000000000000008152506200170b60201b60201c565b620015166040518060400160405280600881526020017f42374141383737340000000000000000000000000000000000000000000000008152506040518060400160405280600581526020017f57445331300000000000000000000000000000000000000000000000000000008152506040518060400160405280600f81526020017f5745535445524e204449474954414c00000000000000000000000000000000008152506040518060400160405280600581526020017f444953434f0000000000000000000000000000000000000000000000000000008152506040518060400160405280600381526020017f39323900000000000000000000000000000000000000000000000000000000008152506200170b60201b60201c565b620016346040518060400160405280600881526020017f33454130373941300000000000000000000000000000000000000000000000008152506040518060400160405280600581526020017f53553830300000000000000000000000000000000000000000000000000000008152506040518060400160405280600581526020017f41444154410000000000000000000000000000000000000000000000000000008152506040518060400160405280600581526020017f444953434f0000000000000000000000000000000000000000000000000000008152506040518060400160405280600381526020017f35343100000000000000000000000000000000000000000000000000000000008152506200170b60201b60201c565b565b60405180608001604052808581526020018481526020018381526020018281525060036000600154815260200190815260200160002060008201518160000190805190602001906200168a92919062001804565b506020820151816001019080519060200190620016a992919062001804565b506040820151816002019080519060200190620016c892919062001804565b506060820151816003019080519060200190620016e792919062001804565b50905050600160008154809291906200170090620018ed565b919050555050505050565b6040518060a0016040528086815260200185815260200184815260200183815260200182815250600460008054815260200190815260200160002060008201518160000190805190602001906200176492919062001804565b5060208201518160010190805190602001906200178392919062001804565b506040820151816002019080519060200190620017a292919062001804565b506060820151816003019080519060200190620017c192919062001804565b506080820151816004019080519060200190620017e092919062001804565b50905050600080815480929190620017f890620018ed565b91905055505050505050565b82805462001812906200196a565b90600052602060002090601f01602090048101928262001836576000855562001882565b82601f106200185157805160ff191683800117855562001882565b8280016001018555821562001882579182015b828111156200188157825182559160200191906001019062001864565b5b50905062001891919062001895565b5090565b5b80821115620018b057600081600090555060010162001896565b5090565b7f4e487b7100000000000000000000000000000000000000000000000000000000600052601160045260246000fd5b6000819050919050565b6000620018fa82620018e3565b91507fffffffffffffffffffffffffffffffffffffffffffffffffffffffffffffffff82141562001930576200192f620018b4565b5b600182019050919050565b7f4e487b7100000000000000000000000000000000000000000000000000000000600052602260045260246000fd5b600060028204905060018216806200198357607f821691505b602082108114156200199a57620019996200193b565b5b50919050565b612fc380620019b06000396000f3fe608060405234801561001057600080fd5b506004361061009e5760003560e01c8063aa92596e11610066578063aa92596e14610189578063bfb231d2146101a5578063cb7340f1146101d9578063ddc4b2d114610209578063ef6bf1ac146102255761009e565b80633129e773146100a3578063365b98b2146100d357806350b44712146101065780636f7fcddb1461013d5780638497dae314610159575b600080fd5b6100bd60048036038101906100b89190612489565b610255565b6040516100ca91906125e1565b60405180910390f35b6100ed60048036038101906100e89190612489565b61055c565b6040516100fd949392919061264d565b60405180910390f35b610120600480360381019061011b9190612489565b6107ac565b6040516101349897969594939291906126ae565b60405180910390f35b61015760048036038101906101529190612899565b610c34565b005b610173600480360381019061016e9190612970565b610cff565b60405161018091906129b9565b60405180910390f35b6101a3600480360381019061019e91906129db565b611305565b005b6101bf60048036038101906101ba9190612489565b611461565b6040516101d0959493929190612b71565b60405180910390f35b6101f360048036038101906101ee9190612970565b61173f565b60405161020091906125e1565b60405180910390f35b610223600480360381019061021e9190612be7565b611b95565b005b61023f600480360381019061023a9190612970565b611c82565b60405161024c9190612dcf565b60405180910390f35b61025d612328565b600460008381526020019081526020016000206040518060a001604052908160008201805461028b90612e20565b80601f01602080910402602001604051908101604052809291908181526020018280546102b790612e20565b80156103045780601f106102d957610100808354040283529160200191610304565b820191906000526020600020905b8154815290600101906020018083116102e757829003601f168201915b5050505050815260200160018201805461031d90612e20565b80601f016020809104026020016040519081016040528092919081815260200182805461034990612e20565b80156103965780601f1061036b57610100808354040283529160200191610396565b820191906000526020600020905b81548152906001019060200180831161037957829003601f168201915b505050505081526020016002820180546103af90612e20565b80601f01602080910402602001604051908101604052809291908181526020018280546103db90612e20565b80156104285780601f106103fd57610100808354040283529160200191610428565b820191906000526020600020905b81548152906001019060200180831161040b57829003601f168201915b5050505050815260200160038201805461044190612e20565b80601f016020809104026020016040519081016040528092919081815260200182805461046d90612e20565b80156104ba5780601f1061048f576101008083540402835291602001916104ba565b820191906000526020600020905b81548152906001019060200180831161049d57829003601f168201915b505050505081526020016004820180546104d390612e20565b80601f01602080910402602001604051908101604052809291908181526020018280546104ff90612e20565b801561054c5780601f106105215761010080835404028352916020019161054c565b820191906000526020600020905b81548152906001019060200180831161052f57829003601f168201915b5050505050815250509050919050565b600360205280600052604060002060009150905080600001805461057f90612e20565b80601f01602080910402602001604051908101604052809291908181526020018280546105ab90612e20565b80156105f85780601f106105cd576101008083540402835291602001916105f8565b820191906000526020600020905b8154815290600101906020018083116105db57829003601f168201915b50505050509080600101805461060d90612e20565b80601f016020809104026020016040519081016040528092919081815260200182805461063990612e20565b80156106865780601f1061065b57610100808354040283529160200191610686565b820191906000526020600020905b81548152906001019060200180831161066957829003601f168201915b50505050509080600201805461069b90612e20565b80601f01602080910402602001604051908101604052809291908181526020018280546106c790612e20565b80156107145780601f106106e957610100808354040283529160200191610714565b820191906000526020600020905b8154815290600101906020018083116106f757829003601f168201915b50505050509080600301805461072990612e20565b80601f016020809104026020016040519081016040528092919081815260200182805461075590612e20565b80156107a25780601f10610777576101008083540402835291602001916107a2565b820191906000526020600020905b81548152906001019060200180831161078557829003601f168201915b5050505050905084565b60056020528060005260406000206000915090508060000180546107cf90612e20565b80601f01602080910402602001604051908101604052809291908181526020018280546107fb90612e20565b80156108485780601f1061081d57610100808354040283529160200191610848565b820191906000526020600020905b81548152906001019060200180831161082b57829003601f168201915b50505050509080600101805461085d90612e20565b80601f016020809104026020016040519081016040528092919081815260200182805461088990612e20565b80156108d65780601f106108ab576101008083540402835291602001916108d6565b820191906000526020600020905b8154815290600101906020018083116108b957829003601f168201915b5050505050908060020180546108eb90612e20565b80601f016020809104026020016040519081016040528092919081815260200182805461091790612e20565b80156109645780601f1061093957610100808354040283529160200191610964565b820191906000526020600020905b81548152906001019060200180831161094757829003601f168201915b50505050509080600301805461097990612e20565b80601f01602080910402602001604051908101604052809291908181526020018280546109a590612e20565b80156109f25780601f106109c7576101008083540402835291602001916109f2565b820191906000526020600020905b8154815290600101906020018083116109d557829003601f168201915b505050505090806004018054610a0790612e20565b80601f0160208091040260200160405190810160405280929190818152602001828054610a3390612e20565b8015610a805780601f10610a5557610100808354040283529160200191610a80565b820191906000526020600020905b815481529060010190602001808311610a6357829003601f168201915b505050505090806005018054610a9590612e20565b80601f0160208091040260200160405190810160405280929190818152602001828054610ac190612e20565b8015610b0e5780601f10610ae357610100808354040283529160200191610b0e565b820191906000526020600020905b815481529060010190602001808311610af157829003601f168201915b505050505090806006018054610b2390612e20565b80601f0160208091040260200160405190810160405280929190818152602001828054610b4f90612e20565b8015610b9c5780601f10610b7157610100808354040283529160200191610b9c565b820191906000526020600020905b815481529060010190602001808311610b7f57829003601f168201915b505050505090806007018054610bb190612e20565b80601f0160208091040260200160405190810160405280929190818152602001828054610bdd90612e20565b8015610c2a5780601f10610bff57610100808354040283529160200191610c2a565b820191906000526020600020905b815481529060010190602001808311610c0d57829003601f168201915b5050505050905088565b6040518060800160405280858152602001848152602001838152602001828152506003600060015481526020019081526020016000206000820151816000019080519060200190610c86929190612357565b506020820151816001019080519060200190610ca3929190612357565b506040820151816002019080519060200190610cc0929190612357565b506060820151816003019080519060200190610cdd929190612357565b5090505060016000815480929190610cf490612e81565b919050555050505050565b60606000604051806020016040528060008152509050600060405180610100016040528060405180602001604052806000815250815260200160405180602001604052806000815250815260200160405180602001604052806000815250815260200160405180602001604052806000815250815260200160405180602001604052806000815250815260200160405180602001604052806000815250815260200160405180602001604052806000815250815260200160405180602001604052806000815250815250905060005b6002548110156112fa576005600082815260200190815260200160002060405180610100016040529081600082018054610e0790612e20565b80601f0160208091040260200160405190810160405280929190818152602001828054610e3390612e20565b8015610e805780601f10610e5557610100808354040283529160200191610e80565b820191906000526020600020905b815481529060010190602001808311610e6357829003601f168201915b50505050508152602001600182018054610e9990612e20565b80601f0160208091040260200160405190810160405280929190818152602001828054610ec590612e20565b8015610f125780601f10610ee757610100808354040283529160200191610f12565b820191906000526020600020905b815481529060010190602001808311610ef557829003601f168201915b50505050508152602001600282018054610f2b90612e20565b80601f0160208091040260200160405190810160405280929190818152602001828054610f5790612e20565b8015610fa45780601f10610f7957610100808354040283529160200191610fa4565b820191906000526020600020905b815481529060010190602001808311610f8757829003601f168201915b50505050508152602001600382018054610fbd90612e20565b80601f0160208091040260200160405190810160405280929190818152602001828054610fe990612e20565b80156110365780601f1061100b57610100808354040283529160200191611036565b820191906000526020600020905b81548152906001019060200180831161101957829003601f168201915b5050505050815260200160048201805461104f90612e20565b80601f016020809104026020016040519081016040528092919081815260200182805461107b90612e20565b80156110c85780601f1061109d576101008083540402835291602001916110c8565b820191906000526020600020905b8154815290600101906020018083116110ab57829003601f168201915b505050505081526020016005820180546110e190612e20565b80601f016020809104026020016040519081016040528092919081815260200182805461110d90612e20565b801561115a5780601f1061112f5761010080835404028352916020019161115a565b820191906000526020600020905b81548152906001019060200180831161113d57829003601f168201915b5050505050815260200160068201805461117390612e20565b80601f016020809104026020016040519081016040528092919081815260200182805461119f90612e20565b80156111ec5780601f106111c1576101008083540402835291602001916111ec565b820191906000526020600020905b8154815290600101906020018083116111cf57829003601f168201915b5050505050815260200160078201805461120590612e20565b80601f016020809104026020016040519081016040528092919081815260200182805461123190612e20565b801561127e5780601f106112535761010080835404028352916020019161127e565b820191906000526020600020905b81548152906001019060200180831161126157829003601f168201915b50505050508152505091506112978260200151866122cf565b156112e7578282600001516040516020016112b3929190612f06565b6040516020818303038152906040529250826040516020016112d59190612f50565b60405160208183030381529060405292505b80806112f290612e81565b915050610dce565b508192505050919050565b604051806101000160405280898152602001888152602001878152602001868152602001858152602001848152602001838152602001828152506005600060025481526020019081526020016000206000820151816000019080519060200190611370929190612357565b50602082015181600101908051906020019061138d929190612357565b5060408201518160020190805190602001906113aa929190612357565b5060608201518160030190805190602001906113c7929190612357565b5060808201518160040190805190602001906113e4929190612357565b5060a0820151816005019080519060200190611401929190612357565b5060c082015181600601908051906020019061141e929190612357565b5060e082015181600701908051906020019061143b929190612357565b509050506002600081548092919061145290612e81565b91905055505050505050505050565b600460205280600052604060002060009150905080600001805461148490612e20565b80601f01602080910402602001604051908101604052809291908181526020018280546114b090612e20565b80156114fd5780601f106114d2576101008083540402835291602001916114fd565b820191906000526020600020905b8154815290600101906020018083116114e057829003601f168201915b50505050509080600101805461151290612e20565b80601f016020809104026020016040519081016040528092919081815260200182805461153e90612e20565b801561158b5780601f106115605761010080835404028352916020019161158b565b820191906000526020600020905b81548152906001019060200180831161156e57829003601f168201915b5050505050908060020180546115a090612e20565b80601f01602080910402602001604051908101604052809291908181526020018280546115cc90612e20565b80156116195780601f106115ee57610100808354040283529160200191611619565b820191906000526020600020905b8154815290600101906020018083116115fc57829003601f168201915b50505050509080600301805461162e90612e20565b80601f016020809104026020016040519081016040528092919081815260200182805461165a90612e20565b80156116a75780601f1061167c576101008083540402835291602001916116a7565b820191906000526020600020905b81548152906001019060200180831161168a57829003601f168201915b5050505050908060040180546116bc90612e20565b80601f01602080910402602001604051908101604052809291908181526020018280546116e890612e20565b80156117355780601f1061170a57610100808354040283529160200191611735565b820191906000526020600020905b81548152906001019060200180831161171857829003601f168201915b5050505050905085565b611747612328565b60006040518060a0016040528060405180602001604052806000815250815260200160405180602001604052806000815250815260200160405180602001604052806000815250815260200160405180602001604052806000815250815260200160405180602001604052806000815250815250905060005b600054811015611b8b576000611874856004600085815260200190815260200160002060000180546117f190612e20565b80601f016020809104026020016040519081016040528092919081815260200182805461181d90612e20565b801561186a5780601f1061183f5761010080835404028352916020019161186a565b820191906000526020600020905b81548152906001019060200180831161184d57829003601f168201915b50505050506122cf565b90508015611b7757600460008381526020019081526020016000206040518060a00160405290816000820180546118aa90612e20565b80601f01602080910402602001604051908101604052809291908181526020018280546118d690612e20565b80156119235780601f106118f857610100808354040283529160200191611923565b820191906000526020600020905b81548152906001019060200180831161190657829003601f168201915b5050505050815260200160018201805461193c90612e20565b80601f016020809104026020016040519081016040528092919081815260200182805461196890612e20565b80156119b55780601f1061198a576101008083540402835291602001916119b5565b820191906000526020600020905b81548152906001019060200180831161199857829003601f168201915b505050505081526020016002820180546119ce90612e20565b80601f01602080910402602001604051908101604052809291908181526020018280546119fa90612e20565b8015611a475780601f10611a1c57610100808354040283529160200191611a47565b820191906000526020600020905b815481529060010190602001808311611a2a57829003601f168201915b50505050508152602001600382018054611a6090612e20565b80601f0160208091040260200160405190810160405280929190818152602001828054611a8c90612e20565b8015611ad95780601f10611aae57610100808354040283529160200191611ad9565b820191906000526020600020905b815481529060010190602001808311611abc57829003601f168201915b50505050508152602001600482018054611af290612e20565b80601f0160208091040260200160405190810160405280929190818152602001828054611b1e90612e20565b8015611b6b5780601f10611b4057610100808354040283529160200191611b6b565b820191906000526020600020905b815481529060010190602001808311611b4e57829003601f168201915b50505050508152505092505b508080611b8390612e81565b9150506117c0565b5080915050919050565b6040518060a001604052808681526020018581526020018481526020018381526020018281525060046000805481526020019081526020016000206000820151816000019080519060200190611bec929190612357565b506020820151816001019080519060200190611c09929190612357565b506040820151816002019080519060200190611c26929190612357565b506060820151816003019080519060200190611c43929190612357565b506080820151816004019080519060200190611c60929190612357565b50905050600080815480929190611c7690612e81565b91905055505050505050565b611c8a6123dd565b600060405180610100016040528060405180602001604052806000815250815260200160405180602001604052806000815250815260200160405180602001604052806000815250815260200160405180602001604052806000815250815260200160405180602001604052806000815250815260200160405180602001604052806000815250815260200160405180602001604052806000815250815260200160405180602001604052806000815250815250905060005b6002548110156122c5576000611df785600560008581526020019081526020016000206000018054611d7490612e20565b80601f0160208091040260200160405190810160405280929190818152602001828054611da090612e20565b8015611ded5780601f10611dc257610100808354040283529160200191611ded565b820191906000526020600020905b815481529060010190602001808311611dd057829003601f168201915b50505050506122cf565b905080156122b1576005600083815260200190815260200160002060405180610100016040529081600082018054611e2e90612e20565b80601f0160208091040260200160405190810160405280929190818152602001828054611e5a90612e20565b8015611ea75780601f10611e7c57610100808354040283529160200191611ea7565b820191906000526020600020905b815481529060010190602001808311611e8a57829003601f168201915b50505050508152602001600182018054611ec090612e20565b80601f0160208091040260200160405190810160405280929190818152602001828054611eec90612e20565b8015611f395780601f10611f0e57610100808354040283529160200191611f39565b820191906000526020600020905b815481529060010190602001808311611f1c57829003601f168201915b50505050508152602001600282018054611f5290612e20565b80601f0160208091040260200160405190810160405280929190818152602001828054611f7e90612e20565b8015611fcb5780601f10611fa057610100808354040283529160200191611fcb565b820191906000526020600020905b815481529060010190602001808311611fae57829003601f168201915b50505050508152602001600382018054611fe490612e20565b80601f016020809104026020016040519081016040528092919081815260200182805461201090612e20565b801561205d5780601f106120325761010080835404028352916020019161205d565b820191906000526020600020905b81548152906001019060200180831161204057829003601f168201915b5050505050815260200160048201805461207690612e20565b80601f01602080910402602001604051908101604052809291908181526020018280546120a290612e20565b80156120ef5780601f106120c4576101008083540402835291602001916120ef565b820191906000526020600020905b8154815290600101906020018083116120d257829003601f168201915b5050505050815260200160058201805461210890612e20565b80601f016020809104026020016040519081016040528092919081815260200182805461213490612e20565b80156121815780601f1061215657610100808354040283529160200191612181565b820191906000526020600020905b81548152906001019060200180831161216457829003601f168201915b5050505050815260200160068201805461219a90612e20565b80601f01602080910402602001604051908101604052809291908181526020018280546121c690612e20565b80156122135780601f106121e857610100808354040283529160200191612213565b820191906000526020600020905b8154815290600101906020018083116121f657829003601f168201915b5050505050815260200160078201805461222c90612e20565b80601f016020809104026020016040519081016040528092919081815260200182805461225890612e20565b80156122a55780601f1061227a576101008083540402835291602001916122a5565b820191906000526020600020905b81548152906001019060200180831161228857829003601f168201915b50505050508152505092505b5080806122bd90612e81565b915050611d43565b5080915050919050565b6000826040516020016122e29190612f76565b60405160208183030381529060405280519060200120826040516020016123099190612f76565b6040516020818303038152906040528051906020012014905092915050565b6040518060a0016040528060608152602001606081526020016060815260200160608152602001606081525090565b82805461236390612e20565b90600052602060002090601f01602090048101928261238557600085556123cc565b82601f1061239e57805160ff19168380011785556123cc565b828001600101855582156123cc579182015b828111156123cb5782518255916020019190600101906123b0565b5b5090506123d99190612422565b5090565b60405180610100016040528060608152602001606081526020016060815260200160608152602001606081526020016060815260200160608152602001606081525090565b5b8082111561243b576000816000905550600101612423565b5090565b6000604051905090565b600080fd5b600080fd5b6000819050919050565b61246681612453565b811461247157600080fd5b50565b6000813590506124838161245d565b92915050565b60006020828403121561249f5761249e612449565b5b60006124ad84828501612474565b91505092915050565b600081519050919050565b600082825260208201905092915050565b60005b838110156124f05780820151818401526020810190506124d5565b838111156124ff576000848401525b50505050565b6000601f19601f8301169050919050565b6000612521826124b6565b61252b81856124c1565b935061253b8185602086016124d2565b61254481612505565b840191505092915050565b600060a083016000830151848203600086015261256c8282612516565b915050602083015184820360208601526125868282612516565b915050604083015184820360408601526125a08282612516565b915050606083015184820360608601526125ba8282612516565b915050608083015184820360808601526125d48282612516565b9150508091505092915050565b600060208201905081810360008301526125fb818461254f565b905092915050565b600082825260208201905092915050565b600061261f826124b6565b6126298185612603565b93506126398185602086016124d2565b61264281612505565b840191505092915050565b600060808201905081810360008301526126678187612614565b9050818103602083015261267b8186612614565b9050818103604083015261268f8185612614565b905081810360608301526126a38184612614565b905095945050505050565b60006101008201905081810360008301526126c9818b612614565b905081810360208301526126dd818a612614565b905081810360408301526126f18189612614565b905081810360608301526127058188612614565b905081810360808301526127198187612614565b905081810360a083015261272d8186612614565b905081810360c08301526127418185612614565b905081810360e08301526127558184612614565b90509998505050505050505050565b600080fd5b600080fd5b7f4e487b7100000000000000000000000000000000000000000000000000000000600052604160045260246000fd5b6127a682612505565b810181811067ffffffffffffffff821117156127c5576127c461276e565b5b80604052505050565b60006127d861243f565b90506127e4828261279d565b919050565b600067ffffffffffffffff8211156128045761280361276e565b5b61280d82612505565b9050602081019050919050565b82818337600083830152505050565b600061283c612837846127e9565b6127ce565b90508281526020810184848401111561285857612857612769565b5b61286384828561281a565b509392505050565b600082601f8301126128805761287f612764565b5b8135612890848260208601612829565b91505092915050565b600080600080608085870312156128b3576128b2612449565b5b600085013567ffffffffffffffff8111156128d1576128d061244e565b5b6128dd8782880161286b565b945050602085013567ffffffffffffffff8111156128fe576128fd61244e565b5b61290a8782880161286b565b935050604085013567ffffffffffffffff81111561292b5761292a61244e565b5b6129378782880161286b565b925050606085013567ffffffffffffffff8111156129585761295761244e565b5b6129648782880161286b565b91505092959194509250565b60006020828403121561298657612985612449565b5b600082013567ffffffffffffffff8111156129a4576129a361244e565b5b6129b08482850161286b565b91505092915050565b600060208201905081810360008301526129d38184612614565b905092915050565b600080600080600080600080610100898b0312156129fc576129fb612449565b5b600089013567ffffffffffffffff811115612a1a57612a1961244e565b5b612a268b828c0161286b565b985050602089013567ffffffffffffffff811115612a4757612a4661244e565b5b612a538b828c0161286b565b975050604089013567ffffffffffffffff811115612a7457612a7361244e565b5b612a808b828c0161286b565b965050606089013567ffffffffffffffff811115612aa157612aa061244e565b5b612aad8b828c0161286b565b955050608089013567ffffffffffffffff811115612ace57612acd61244e565b5b612ada8b828c0161286b565b94505060a089013567ffffffffffffffff811115612afb57612afa61244e565b5b612b078b828c0161286b565b93505060c089013567ffffffffffffffff811115612b2857612b2761244e565b5b612b348b828c0161286b565b92505060e089013567ffffffffffffffff811115612b5557612b5461244e565b5b612b618b828c0161286b565b9150509295985092959890939650565b600060a0820190508181036000830152612b8b8188612614565b90508181036020830152612b9f8187612614565b90508181036040830152612bb38186612614565b90508181036060830152612bc78185612614565b90508181036080830152612bdb8184612614565b90509695505050505050565b600080600080600060a08688031215612c0357612c02612449565b5b600086013567ffffffffffffffff811115612c2157612c2061244e565b5b612c2d8882890161286b565b955050602086013567ffffffffffffffff811115612c4e57612c4d61244e565b5b612c5a8882890161286b565b945050604086013567ffffffffffffffff811115612c7b57612c7a61244e565b5b612c878882890161286b565b935050606086013567ffffffffffffffff811115612ca857612ca761244e565b5b612cb48882890161286b565b925050608086013567ffffffffffffffff811115612cd557612cd461244e565b5b612ce18882890161286b565b9150509295509295909350565b6000610100830160008301518482036000860152612d0c8282612516565b91505060208301518482036020860152612d268282612516565b91505060408301518482036040860152612d408282612516565b91505060608301518482036060860152612d5a8282612516565b91505060808301518482036080860152612d748282612516565b91505060a083015184820360a0860152612d8e8282612516565b91505060c083015184820360c0860152612da88282612516565b91505060e083015184820360e0860152612dc28282612516565b9150508091505092915050565b60006020820190508181036000830152612de98184612cee565b905092915050565b7f4e487b7100000000000000000000000000000000000000000000000000000000600052602260045260246000fd5b60006002820490506001821680612e3857607f821691505b60208210811415612e4c57612e4b612df1565b5b50919050565b7f4e487b7100000000000000000000000000000000000000000000000000000000600052601160045260246000fd5b6000612e8c82612453565b91507fffffffffffffffffffffffffffffffffffffffffffffffffffffffffffffffff821415612ebf57612ebe612e52565b5b600182019050919050565b600081905092915050565b6000612ee0826124b6565b612eea8185612eca565b9350612efa8185602086016124d2565b80840191505092915050565b6000612f128285612ed5565b9150612f1e8284612ed5565b91508190509392505050565b7f2c00000000000000000000000000000000000000000000000000000000000000815250565b6000612f5c8284612ed5565b9150612f6782612f2a565b60018201915081905092915050565b6000612f828284612ed5565b91508190509291505056fea2646970667358221220590b109476e34030b1862b8a944b9de8dc483d15d00e3a5db03e55d1d0f92a4464736f6c634300080c0033",
  "immutableReferences": {},
  "source": "pragma solidity ^0.8.12;\n\ncontract BlockchainContract {\n\n  uint itemCounter = 0;\n  uint userCounter = 0;\n  uint ticketCounter = 0;\n\n  struct User {\n    string id;\n    string name;\n    string username;\n    string password;\n  }\n\n  struct Item {\n    string id;\n    string model;\n    string brand;\n    string category;\n    string price;\n  }\n\n  struct Ticket {\n    string id;\n    string idUser;\n    string amount;\n    string idItem;\n    string model;\n    string brand;\n    string category;\n    string price;\n  }\n\n  constructor () {\n    createUsers();\n    createItems();\n  }\n\n  event LoopSeat ( \n    uint inst\n  ); \n\n  mapping (uint => User) public users;\n  mapping (uint => Item) public items;\n  mapping (uint => Ticket) public tickets;\n\n  // Create at the beginning\n  function createUsers () private {\n    createUser(\"01a5c7e2\", \"Yelitza\", \"yelitza2023\", \"HelloWorld2023\");\n    createUser(\"ec073f01\", \"Vicente\", \"vicente2023\", \"HelloWorld2023\");\n  }\n\n  function createItems () private {\n    createItem(\"0EE0FF36\", \"LC24F3\", \"SAMSUNG\", \"MONITOR\", \"4012\");\n    createItem(\"3A03F97F\", \"R242Y\",  \"ACER\", \"MONITOR\", \"2320\");\n    createItem(\"3765447A\", \"L24GQ\",  \"LG\", \"MONITOR\", \"4520\");\n    createItem(\"D2456EF7\", \"GW22Q\",  \"BENQ\", \"MONITOR\", \"2400\");\n    createItem(\"6D16282E\", \"22MK4\",  \"LG\", \"MONITOR\", \"3200\");\n\n    createItem(\"25223433\", \"5600G\",  \"RYZEN\", \"PROCESADOR\", \"2095\");\n    createItem(\"5A631EA9\", \"5700G\",  \"RYZEN\", \"PROCESADOR\", \"3085\");\n    createItem(\"2564B5BC\", \"5600X\",  \"RYZEN\", \"PROCESADOR\", \"2825\");\n    createItem(\"6E5B384D\", \"5800X\",  \"RYZEN\", \"PROCESADOR\", \"4025\");\n    createItem(\"7A480974\", \"11400\",  \"INTEL\", \"PROCESADOR\", \"3179\");\n\n    createItem(\"9949DA2F\", \"KF426\",  \"KINGSTON\", \"RAM\", \"709\");\n    createItem(\"574AF37C\", \"CMW16\",  \"CORSAIR\", \"RAM\", \"1279\");\n    createItem(\"DE93DED3\", \"AX4U3\",  \"XPG\", \"RAM\", \"1340\");\n    createItem(\"58EB95C9\", \"SA400\",  \"KINGSTON\", \"DISCO\", \"485\");\n    createItem(\"0481CCB4\", \"SU630\",  \"ADATA\", \"DISCO\", \"829\");\n\n    createItem(\"E01DCF2D\", \"WDS48\",  \"WESTERN DIGITAL\", \"DISCO\", \"499\");\n    createItem(\"B7AA8774\", \"WDS10\",  \"WESTERN DIGITAL\", \"DISCO\", \"929\");\n    createItem(\"3EA079A0\", \"SU800\",  \"ADATA\", \"DISCO\", \"541\");\n  }\n\n  function createUser (string memory _id, string memory _name, string memory _email, string memory _password) public {\n    users[userCounter] = User(_id, _name, _email, _password);\n    userCounter++;\n  }\n\n  function createItem (string memory _id, string memory _model, string memory _brand, string memory _category, string memory _priceInPesos) public {\n    items[itemCounter] = Item(_id,  _model, _brand, _category, _priceInPesos);\n    itemCounter++;\n  }\n\n  function createTicket (string memory _id, string memory _idUser, string memory _amount, string memory _idItem, string memory _model, string memory _brand, string memory _category, string memory _price) public {\n    tickets[ticketCounter] = Ticket(_id, _idUser, _amount, _idItem, _model, _brand, _category, _price );\n    ticketCounter++;\n  }\n\n  function getItemById (string memory _idItem) public view returns (Item memory) {\n    Item memory item = Item(\"\", \"\", \"\", \"\", \"\");\n    for (uint i = 0; i < itemCounter; i++) {\n      bool compareIds = stringsEquals(_idItem, items[i].id);\n      if (compareIds) { item = items[i]; }\n    }\n    return item;\n  }\n\n  function getTicketById (string memory _idTicket) public view returns (Ticket memory) {\n    Ticket memory ticket = Ticket(\"\", \"\", \"\", \"\", \"\", \"\", \"\", \"\");\n    for (uint i = 0; i < ticketCounter; i++) {\n      bool compareIds = stringsEquals(_idTicket, tickets[i].id);\n      if (compareIds) { ticket = tickets[i]; }\n    }\n    return ticket;\n  }\n\n  function getUserShoppings (string memory _idUser) public view returns(string memory) {\n    string memory idsArray = \"\";\n    Ticket memory ticket = Ticket(\"\", \"\", \"\", \"\", \"\", \"\", \"\", \"\");\n    for (uint i = 0; i < ticketCounter; i++) {\n      ticket = tickets[i];\n      if (stringsEquals(ticket.idUser, _idUser)) { \n        idsArray = string.concat(idsArray, ticket.id); \n        idsArray = string.concat(idsArray, \",\"); \n      }\n    }\n    return idsArray;\n  }\n\n\n  function getItem (uint _position) public view returns (Item memory) {\n    return items[_position];\n  }\n\n  function stringsEquals(string memory s1, string memory s2) private pure returns (bool) {\n    return keccak256(abi.encodePacked(s2)) == keccak256(abi.encodePacked(s1));\n  }\n\n}\n\n  // function signIn (string memory _username, string memory _password) public view returns (User memory) {\n  //   User memory selectedUser = User(\"\", \"\", \"\", \"\");\n  //   for (uint i = 0; i < userCounter; i++) {\n  //     bool compareUsernames = stringsEquals(_username, users[i].username);\n  //     bool comparePasswords = stringsEquals(_password, users[i].password);\n  //     if (compareUsernames && comparePasswords) { selectedUser = users[i]; }\n  //   }\n  //   return selectedUser;\n  // }",
  "sourcePath": "/Users/andrelizaran/Documents/Proyectos/PC Store Contract/contracts/BlockchainContract.sol",
  "compiler": {
    "name": "solc",
    "version": "0.8.12+commit.f00d7308.Emscripten.clang"
  },
  "schemaVersion": "3.4.14",
  "updatedAt": "2023-06-07T17:47:23.071Z",
  "networkType": "ethereum",
  "devdoc": {
    "kind": "dev",
    "methods": {},
    "version": 1
  },
  "userdoc": {
    "kind": "user",
    "methods": {},
    "version": 1
  }
}